:100000000C942A000C9489010C94B0010C94D70133
:100010000C9447000C9447000C9447000C94250264
:100020000C944C020C94FE010C9447000C94470075
:100030000C9447000C9447000C9447000C94470024
:100040000C9447000C9447000C9447000C94470014
:100050000C94470011241FBECFE5D8E0DEBFCDBF12
:1000600010E0A0E6B0E0E6E1F7E002C005900D92F6
:10007000A43AB107D9F720E0A4EAB0E001C01D928C
:10008000A03BB207E1F70E949E000C9489030C94F8
:1000900000001F93CF93DF93C82FD62F142F0E94F9
:1000A0008D02883091F48C2F8E7F0E9477028831E8
:1000B00061F48D2F0E947702883239F4812F0E94DB
:1000C0007702883211F40E94A202DF91CF911F9132
:1000D00008950F931F93CF93DF931F92CDB7DEB791
:1000E000182F062F19820E948D028830E9F4812F83
:1000F0008E7F0E9477028831B9F4802F0E947702A8
:10010000883291F40E948D02803171F4812F8160D8
:100110000E947702803441F4CE0101960E94B2021F
:10012000883511F40E94A20289810F90DF91CF914E
:100130001F910F9108950E94C70008950E94080121
:1001400080EF0E9473020E943803C82F482F63E09B
:1001500080EA0E9449002FEF81EE94E02150804018
:100160009040E1F700C0000063E080EA0E9469006F
:10017000C813E9CF87E10E949B002FEF89E698E141
:10018000215080409040E1F700C00000DCCF982F64
:100190009770869586958695813099F028F0823003
:1001A000E9F0833041F108954BB321E030E0B9012B
:1001B00002C0660F771F9A95E2F7CB0184278BBBAD
:1001C000089548B321E030E0B90102C0660F771FFF
:1001D0009A95E2F7CB01842788BB089545B321E0C7
:1001E00030E0B90102C0660F771F9A95E2F7CB01A4
:1001F000842785BB089542B321E030E0B90102C0F5
:10020000660F771F9A95E2F7CB01842782BB08958A
:10021000E4E6F0E080E041E050E0282F2770982FDE
:10022000969596959695913009F130F09230C1F1FE
:10023000933009F44FC067C09081913059F49AB35C
:10024000BA0102C0660F771F2A95E2F79B01292B9E
:100250002ABB59C03AB3BA0102C0660F771F2A956C
:10026000E2F7962F909593239ABB4DC090819130E1
:1002700059F497B3BA0102C0660F771F2A95E2F7C7
:100280009B01292B27BB3FC037B3BA0102C0660FC1
:10029000771F2A95E2F7962F9095932397BB33C04B
:1002A0009081913059F494B3BA0102C0660F771F60
:1002B0002A95E2F79B01292B24BB25C034B3BA0150
:1002C00002C0660F771F2A95E2F7962F9095932329
:1002D00094BB19C09081913059F491B3BA0102C016
:1002E000660F771F2A95E2F79B01292B21BB0BC0D4
:1002F00031B3BA0102C0660F771F2A95E2F7962F35
:100300009095932391BB8F5F3296803209F085CF11
:1003100008951F920F920FB60F9211242F933F93BF
:100320004F935F936F937F938F939F93AF93BF93FD
:10033000EF93FF93E091A800F091A9000995FF9138
:10034000EF91BF91AF919F918F917F916F915F914D
:100350004F913F912F910F900FBE0F901F901895C6
:100360001F920F920FB60F9211242F933F934F932A
:100370005F936F937F938F939F93AF93BF93EF930D
:10038000FF93E091A600F091A7000995FF91EF91EE
:10039000BF91AF919F918F917F916F915F914F919D
:1003A0003F912F910F900FBE0F901F9018951F92A5
:1003B0000F920FB60F9211242F933F934F935F9399
:1003C0006F937F938F939F93AF93BF93EF93FF931D
:1003D000E091A400F091A5000995FF91EF91BF91E4
:1003E000AF919F918F917F916F915F914F913F91CD
:1003F0002F910F900FBE0F901F9018951F920F9284
:100400000FB60F9211242F933F934F935F936F93E7
:100410007F938F939F93AF93BF93EF93FF93E0915D
:10042000AE00F091AF000995FF91EF91BF91AF91B0
:100430009F918F917F916F915F914F913F912F91FC
:100440000F900FBE0F901F9018951F920F920FB62E
:100450000F9211242F933F934F935F936F937F934A
:100460008F939F93AF93BF93EF93FF93E091AC0073
:10047000F091AD000995FF91EF91BF91AF919F91E0
:100480008F917F916F915F914F913F912F910F903D
:100490000FBE0F901F9018951F920F920FB60F92DC
:1004A00011242F933F934F935F936F937F938F9379
:1004B0009F93AF93BF93EF93FF93E091AA00F091C6
:1004C000AB000995FF91EF91BF91AF919F918F91F3
:1004D0007F916F915F914F913F912F910F900FBE40
:1004E0000F901F90189582B982E080B9089583B962
:1004F00086B78F7D86BF86B78F7E86BF86B78F7B98
:1005000086BF86B7846086BF86B7806886BF06B61A
:1005100007FEFDCF81B1887F089586B7806286BFD0
:1005200086B78F7E86BF86B78F7B86BF86B784608F
:1005300086BF86B7806886BF06B607FEFDCF81B14D
:10054000887F089586B78F7D86BF86B7806186BF16
:1005500086B78F7B86BF86B7846086BF86B7806884
:1005600086BF0895FC0196B79F7D96BF96B79F7E84
:1005700096BF96B79F7B96BF96B7946096BF96B787
:10058000906896BF06B607FEFDCF83B1808381B128
:10059000887F0895A1E21A2EAA1BBB1BFD010DC086
:1005A000AA1FBB1FEE1FFF1FA217B307E407F50723
:1005B00020F0A21BB30BE40BF50B661F771F881FFF
:1005C000991F1A9469F760957095809590959B0195
:1005D000AC01BD01CF0108958F929F92AF92BF925F
:1005E000CF92DF92EF92FF92CF93DF93EC0168817D
:1005F00079818A819B81611571058105910521F4BD
:1006000064E279ED8BE597E02DE133EF41E050E0D6
:100610000E94480349015A019B01AC01A7EAB1E4D9
:100620000E9467036B017C01ACEEB4EFA50194015D
:100630000E947503DC01CB018C0D9D1DAE1DBF1DFD
:10064000B7FF03C00197A109B04888839983AA83A3
:10065000BB839F77DF91CF91FF90EF90DF90CF909A
:10066000BF90AF909F908F9008950E94EC020895E4
:1006700080E690E00E94EC020895A0E0B0E0809354
:10068000600090936100A0936200B09363000895AE
:10069000052E97FB1EF400940E945F0357FD07D0C0
:1006A0000E94CA0207FC03D04EF40C945F035095DD
:1006B0004095309521953F4F4F4F5F4F089590954E
:1006C0008095709561957F4F8F4F9F4F08950E9441
:1006D0007A03A59F900DB49F900DA49F800D911D4E
:1006E00011240895B7FF0C9467030E946703821BCF
:1006F000930B0895A29FB001B39FC001A39F700DFB
:10070000811D1124911DB29F700D811D1124911D19
:060710000895F894FFCFEC
:1007160001000000010101010101010101010101C6
:1007260001010101010101010101010101010101B3
:1007360001010101010101010101010101010101A3
:100746000101010101010101000001010101010195
:04075600000001019D
:00000001FF
